:020000040800F2
:10000000800B0020A9010008132A0008892300089A
:10001000112A000847140008572D000800000000AE
:10002000000000000000000000000000F12C0008AB
:100030004914000800000000152A0008F32C0008ED
:10004000C3010008C3010008C3010008C301000880
:10005000C3010008C3010008C3010008C301000870
:10006000C3010008C3010008C3010008C301000860
:10007000C3010008C3010008C3010008C301000850
:10008000C3010008C3010008C3010008C301000840
:10009000C3010008C3010008C3010008C301000830
:1000A000C3010008C3010008C3010008C301000820
:1000B000C3010008C301000800000000C3010008DC
:1000C000C30100080000000000000000C301000898
:1000D00000000000C3010008C30100080000000088
:1000E000C3010008C3010008C301000800F002F8C2
:1000F00000F04AF80AA090E8000C82448344AAF178
:100100000107DA4501D100F03FF8AFF2090EBAE875
:100110000F0013F0010F18BFFB1A43F0010318473B
:100120000C4800002C480000103A24BF78C878C161
:10013000FAD8520724BF30C830C144BF04680C60ED
:10014000704700000023002400250026103A28BF35
:1001500078C1FBD8520728BF30C148BF0B60704739
:10016000662903F0CC87642900F052800020704794
:100170001FB500F027FC04000020002103F000F868
:10018000E0601FBD10B510BD00F020FD1146FFF767
:10019000EFFF02F083FE00F03EFD03B4FFF7F2FF35
:1001A00003BC00F081FD0000094880470948004772
:1001B000FEE7FEE7FEE7FEE7FEE7FEE7FEE7FEE717
:1001C000FEE7FEE704480549054A064B7047000074
:1001D000552D0008ED00000880050020800B002050
:1001E00080070020800700200FB41CB5074B06AA2B
:1001F0007B4469460090059800F0A9FB0020694601
:1002000000F0B8FB1CBC5DF814FB00008107000087
:100210002DE9F0410646002410687529314616A5DF
:1002200010D0AFF30080002802DA404213A507E0A7
:1002300031688A0701D512A502E0490704D511A546
:10024000012401E0AFF3008000210A2206F1240717
:1002500009E0B0FBF2FCB0FBF2F302FB1C00303013
:1002600078541846491C0028F3D123462A463046C4
:10027000BDE8F04100F0FEB8000000002D000000D5
:100280002B000000200000002DE9F0474FF0000A8D
:1002900089460446C0F820A02046E1688847002827
:1002A00076D0252806D0D4E901219047206A401C49
:1002B0002062F1E7E168204600258847C4F81CA0C9
:1002C00006460027C4F818A02A2E09D0304602F0AE
:1002D00067FD38B304EB8708303EC8F8186019E0B2
:1002E00059F8041B204604EB87029161E1688847B6
:1002F000012F064618D1E069002820DA25F02005F4
:100300001DE0D8F8180000EB800006EB4000303804
:10031000C8F818002046E1688847064602F040FD0C
:100320000028EED1012F0AD02E2E08D12046E168F8
:1003300088477F1C0646022F45F02005C4DBA069D4
:10034000002803DA404245F00105A061E80701D02A
:1003500025F01005B6B1A6F14100192802D82036C3
:1003600045F400654A463146204625604D46FFF774
:10037000F7FE58B1012806D0ED1D25F0070000F169
:10038000080989E704E005F1040985E730468AE7B2
:10039000206ABDE8F08710B5203AC0F00B80B1E8C4
:1003A0001850203AA0E81850B1E81850A0E81850AA
:1003B000BFF4F5AF5FEA027C24BFB1E81850A0E8B3
:1003C000185044BF18C918C0BDE810405FEA827CCD
:1003D00024BF51F8043B40F8043B08BF7047D207E4
:1003E00028BF31F8023B48BF11F8012B28BF20F885
:1003F000023B48BF00F8012B704702F0FF0343EABD
:10040000032242EA024200F0BCBA4FF0000200B5FB
:10041000134694469646203922BFA0E80C50A0E827
:100420000C50B1F12001BFF4F7AF090728BFA0E8D5
:100430000C5048BF0CC05DF804EB890028BF40F8A1
:10044000042B08BF704748BF20F8022B11F0804FE3
:1004500018BF00F8012B704770477047704710B500
:1004600000F0B4FA006810BD10B5044600F0AEFA12
:10047000046010BD2DE9F0470D46994692460446AA
:1004800000F124080168880604D5E06921F0100114
:10049000216000E00120A84201DD471B00E00027A9
:1004A000A1697A1902EB0900081AA0612078C00638
:1004B00002D42046AFF30080002608E0D4E90121F1
:1004C0001AF806009047206A401C761C20624E45B0
:1004D000F4DB2078C0060AD52046AFF3008006E0A2
:1004E000D4E9012130209047206A401C2062381E48
:1004F000A7F10107F4DC07E0D4E9012118F80500B1
:100500009047206A401C2062281EA5F10105F3DCFB
:100510002046AFF300802078000602D50220BDE817
:10052000F0870120FBE770472DE9FF4F0C461E4680
:100530004FF0FF378BB0D2E90001DDF860800A9000
:100540008A46C1F30A5505B93D46002108464FF0D9
:100550000000BAF1000F00F4400005DA00EB800063
:100560004FF4400101EA50004FEA9059B9F1010FF0
:1005700000DDB9460A9850EA4A000ED044F6105001
:10058000A5F2FF3545432F14B8F1000F1ED0754278
:10059000291E1EDDC9F100021CE0B8F1010F4FF069
:1005A000000001D0302103E0F24305E02154401C5B
:1005B000B042FBDB30460022002121540B99C1F8E8
:1005C0000880C1E900200FB0BDE8F08FBD1B6D1C95
:1005D000DEE74A4600DA694206A800F081FA06AB77
:1005E00093E8070003AB83E8070050460A9900F040
:1005F00062FB8DE80700A0F500501F3800900398BB
:10060000002D0ADD42F21F014A460844002303A9D7
:100610000390684600F0CBFD09E0A0F500504A4683
:100620001F38002303A90390684600F0D5FD8DE82C
:1006300007000004000C03D04FF0FF30410800E039
:100640001046B8F1000F03D00022009215461EE0BC
:10065000751E05D400F0BEF9303262556D1EF9D515
:10066000B3460122084302D000227F1C04E0207818
:10067000302801D100227F1E002A099784D01DE076
:10068000112D07DA00F0A6F9303262556D1C50EAE0
:100690000102F5D1084302D00098C8B10EE0002154
:1006A000681E05E0235C625C63542254401E491CB2
:1006B0008142F7DBAB46A81B401E0990002004F8DE
:1006C0000B000B98099AC0F80880C0E9002B7AE764
:1006D00011264FF0000857E72DE9F04F88460446F1
:1006E000D21D22F0070191B0D1E90001CDE90A0144
:1006F00002F032FB02460B98C00F01D02D2007E01C
:100700002068810701D52B2002E0202101EAC000EA
:10071000032A099001D0072A05DB034641462046FB
:1007200000F09EF90BE12078800601D5E06900E039
:100730000620B8F1650F814606D0B8F1660F18D0D3
:10074000B8F1670F70D131E00020B9F1110F0090BE
:1007500001DB112301E009F101030AAA01A90CA898
:10076000FFF7E2FEDDE90C70002609F10105834682
:1007700047E001204B4600904FF000470AAA01A92C
:100780000CA8FFF7D1FEDDE90DB00C995D460026FF
:1007900010B909F101000D18B9EB050003D4C0F13F
:1007A000FF3609F10105A5EB09002BE0B9F1010FB6
:1007B00001DA4FF001090020B9F1110F009048460D
:1007C00001DD112300E003460AAA01A90CA8FFF7E6
:1007D000ABFEDDE90C704D4600268346207800070D
:1007E0000AD4AB4500DA5D4601A8012D04DD4119AC
:1007F00011F8011C302907D04F4502DA17F1040F18
:1008000004DA012082460FE06D1EEEE7002F02DCC5
:10081000ED1B3E4403E0781CA84200DD7D1CB81BA4
:1008200000F1010A4FF000472078000703D4AA45E1
:1008300001DB4FF0FF3A0021B7F1004F0DF1430803
:100840008DF8431024D002202B23002F01DA7F42A1
:100850002D230A21021EA0F1010000DC5FB197FBED
:10086000F1FC97FBF1F201FB1C7C17460CF1300CFC
:1008700008F801CDEEE7A8F1010003702188090511
:1008800001D5452100E06521A0F1010800F8011C17
:1008900009980FA9A1EB0807FF1D00B1012041191C
:1008A00001EBEA70A1693844081A401EA061207863
:1008B000C00602D42046AFF30080099828B1D4E9DD
:1008C00001219047206A401C20622078C00622D572
:1008D0002046AFF300801EE0002E04DBB34502DDAE
:1008E00001A8805D00E03020D4E901219047206A12
:1008F000401C2062761CAAF101005FEA000A0AD1BE
:1009000000F060F8C0680168405CD4E901219047BC
:10091000206A401C2062281EA5F10105DCDC07E0EE
:10092000D4E9012118F8010B9047206A401C20628D
:10093000381EA7F10107F3DC2046AFF30080032047
:1009400011B041E601694A1C02610878704700B5A0
:100950008FB0CDE901310021059105497944CDE9F8
:10096000031011466846FFF78FFC0FB000BD000072
:10097000E5FFFFFF0A6802F8010B0A6070474FF0BD
:1009800000020429C0F0128010F0030C3FF43FADC8
:10099000CCF1040CBCF1020F18BF00F8012BA8BF6A
:1009A00020F8022BA1EB0C01FFF731BD5FEAC17CFF
:1009B00024BF00F8012B00F8012B48BF00F8012BE1
:1009C000704700000048704740050020004870470D
:1009D0002005002030B5B0F10A024FEA900E71F107
:1009E00000034EEA817EB0EB0E0061EB91014FEA0D
:1009F000101E4EEA017E10EB0E0041EB11114FEA82
:100A0000102E4EEA016E10EB0E0041EB11214FEA61
:100A1000104E4EEA014E10EB0E0041EB1141401812
:100A200041F100014FEAD00040EA41704FEAD101A4
:100A300010EB80054FEA810444EA907444EB010412
:100A40006D1944EB0404521BA3414FF0000348BF4F
:100A50000A3200D530BD401C41F1000130BD00001C
:100A60002DE9F0411F46044603260168072A01F4D8
:100A7000006004DB08B116A505E016A503E008B187
:100A800015A500E015A521F010002060A069C01E8A
:100A9000A0610FB1401EA0612046AFF300804FB1AE
:100AA000D4E9012138469047206A401C2062C01CCE
:100AB000206206E0206AFAE7D4E9012115F8010B6B
:100AC0009047761EF8D22046AFF30080BDE8F08153
:100AD0004E414E006E616E00494E4600696E6600E2
:100AE0002DE9F047814616468AB0354878440DC84E
:100AF0008DE80D0032487844801C03AC0DC884E8B2
:100B00000D0041F69B300844372190FBF1F290FB39
:100B1000F1F5A5F1800501FB12041B3C02D56442EE
:100B2000012000E00020DFF898A080460027FA446A
:100B3000AAF1BE0A0EE0E0070AD03246684607EB8B
:100B4000470101230AEB810100F046FB8DE8070015
:100B500064107F1C002CEED1194F7F44AE3F19E08A
:100B6000E80715D007EB04100DF1180A90E80E0005
:100B70008AE80E00C068F04201D198190890324608
:100B8000012306A903A800F027FB03AB83E80700B5
:100B90006D10641C002DE3D14FF00103324669460D
:100BA000B8F1000F03A802D000F001FB01E000F053
:100BB00013FBC9E90001C9F808200AB0BDE8F087B5
:100BC000243E000000487047200500207546FFF7CE
:100BD000F9FFAE4605006946534620F007008546FA
:100BE00018B020B5FFF7EEFABDE820404FF0000640
:100BF0004FF000074FF000084FF0000B21F0070105
:100C0000AC46ACE8C009ACE8C009ACE8C009ACE847
:100C1000C0098D46704710B50446AFF300802046EA
:100C2000BDE81040FFF7B9BA4FF0013C50F8042B73
:100C300051F8043B9A4221D1A2EB0C03934313EAEF
:100C4000CC1317D150F8042B51F8043B9A4215D11C
:100C5000A2EB0C03934313EACC130BD150F8042BF3
:100C600051F8043B9A4209D1A2EB0C03934313EAD7
:100C7000CC13DBD04FF00000704700BFD01A01BA90
:100C8000B1FA81F101F0180122FA01F0CB40C1F173
:100C90002001DBB2C0B2C01A2CFA01F3D11A914381
:100CA00011EAC311E6D1704701491820ABBEFEE737
:100CB0002600020070475FEA400C08BF91F0000F69
:100CC0004FEA8C234FEAC12243EA51514FEA1C50AC
:100CD00018BF00F5F0404FEA300018BF41F0004166
:100CE0005FEA6C5C00F02980BCF1FF3F08BF40F078
:100CF00080407047130C06BF12044FF0100C4FF0E9
:100D0000000C130E04BF12020CF1080C130F04BFE9
:100D100012010CF1040C930F04BF92000CF1020CB1
:100D2000D30F04BF52000CF1010C11464FF000022A
:100D3000A0F11F00A0EB0C00704711F0004F08BF9E
:100D4000704731F000413FF4D5AF0B0C06BF0904EA
:100D50004FF0100C4FF0000C0B0E04BF09020CF109
:100D6000080C0B0F04BF09010CF1040C8B0F04BF1E
:100D700089000CF1020CCB0F04BF49000CF1010CEF
:100D8000CCF12003A0EB0C0022FA03F302FA0CF2E0
:100D900041EA030100F10100704720F07F4C80EA36
:100DA000030023F07F47ACEB070303F57C5300F00F
:100DB000004003F1FF032DE980494FEA154B09B4C8
:100DC0004FEA144325EA0B4E24EA03480FF20426A7
:100DD00006EB132749083E785FEA320203FB0667F9
:100DE000C7F5000707FB06F64FEA54374FEAD64629
:100DF00006F1020607FB066CCCF1005C4FEA1C47CB
:100E00002CEA074C07FB06F40CFB06F504EB154631
:100E10004FEA961634BF00204FF000404FEAD1371A
:100E200006FB07FC4FEA1C4C0CFB0BF7D21B03FB29
:100E30000CF761EB07010CFB0EF7B0EB074072EB10
:100E400017420CFB08F734BFA2EB0742B2EB074294
:100E500061EB17414FEA0C444FEA910706FB07FC90
:100E60004FEA1C4C0CFB0BF7B0EBC74072EB573250
:100E700003FB0CF734BFA2EBC742B2EBC74261EBF6
:100E800057310CFB0EF7B0EBC70072EB57720CFB3F
:100E900008F734BFA2EBC702B2EBC70261EB577190
:100EA000039F4FEA816141EA921104EBCC044FEABF
:100EB000D1374FEA826206FB07FC42EA90124FEA02
:100EC00080604FEA1C4C0CFB0BF7D21B03FB0CF7AA
:100ED00061EB07010CFB0EF7B0EB074072EB17421A
:100EE0000CFB08F734BFA2EB0742B2EB074261EB01
:100EF00017414FEA8C554FEA910704EB9C2406FBFF
:100F000007FC4FEA1C4C0CFB0BF7B0EBC74072EB35
:100F1000573203FB0CF734BFA2EBC742B2EBC74218
:100F200061EB57310CFB0EF7B0EBC70072EB577259
:100F30000CFB08F734BFA2EBC702B2EBC70261EBB0
:100F4000577115EB4C254FEA816141EA92114FEA46
:100F500082624FEAD13742EA901206FB07FC44F165
:100F600000044FEA80604FEA1C4C0CFB0BF7D21BCD
:100F700003FB0CF761EB07010CFB0EF7B0EB07402E
:100F800072EB17420CFB08F734BFA2EB0742B2EB3F
:100F9000074261EB174115EB1C154FEA813141EA1D
:100FA00092414FEA823242EA90424FEA80304FEA61
:100FB0000C7644F1000448EA03434EEA0B484FF034
:100FC000000EB2EB080C71EB030724BF62463946F2
:100FD0004EEB0E0E4FF0000B0018524149414BEB07
:100FE0000B0BB2EB080C71EB03077BF1000B24BF7A
:100FF000624639464EEB0E0E4FF0000B0018524180
:1010000049414BEB0B0BB2EB080C71EB03077BF187
:10101000000B24BF624639464EEB0E0E51EA020722
:1010200018BF46F0010616EB0E7655F1000254F19A
:10103000000103D5BDE88901BDE80088BDE889014C
:10104000BDE80048B619524141EB0101A3F101038B
:10105000704780807F7E7D7C7B7A79787776767525
:101060007473727171706F6E6E6D6C6C6B6A6A699D
:101070006868676666656464636362616160605F37
:101080005F5E5E5D5D5C5C5B5B5A5A5959585857B0
:101090005756565555555454535352525251515018
:1010A00050504F4F4F4E4E4D4D4D4C4C4C4B4B4B6B
:1010B0004A4A4A49494948484847474747464646B1
:1010C00045454544444444434343434242424241EC
:1010D0004141002B9C4630D477002BD01CB54FEA01
:1010E000370703B44FF010004FF01001BAF1000FB2
:1010F00006D0BCF1000FDCBF40F0080040F0080152
:101100004FF000000FBCBDE810400BF1010BBBF12C
:10111000010F08BF5FEA170722BF12F1010211F1A8
:1011200001014FF0004143F1000300F0004043EAA9
:1011300000007047F9D35708D0E746EA064613F196
:10114000400F4FEA16461FDD13F1200FDFBF164395
:101150000A46002120335B42BED0C3F1200746EA95
:10116000064602FA07F74FEA164646EA0706C3F1B3
:10117000200722FA03F201FA07F721FA03F14FF0F0
:10118000000342EA0702A7E746EA020646EA0646E5
:101190004FEA164646EA0106BCBF46EA0646360C4A
:1011A0004FF000034FF000024FF0000194E72DE9EB
:1011B000804C9A46934670B491E8380007C831EAEB
:1011C000400C48BF34EA430C03D5FFF7E6FDFFF7B8
:1011D00080FFF0BCBDE8008C2DE9804C9A46934618
:1011E00070B491E8380007C810F0804F08BF13F0C2
:1011F000804F03D100F005F8FFF76BFFF0BCBDE8AE
:10120000008C20F07F4780EA030023F07F4C07EB3F
:101210000C03A3F57C5300F00040A3F1FE0392F011
:10122000000F00F0B38095F0000F00F077802DE9FB
:1012300001494FEA11404FEA144621EA004800FBF9
:1012400006FC24EA064708FB06F607FB08F800FB45
:1012500007F718EB06484CEB164C4FEA124B18EB0D
:1012600007484FEA15464CEB174022EA0B4E0BFBA2
:1012700006FC25EA06470EFB06F607FB0EFE0BFBF7
:1012800007F71EEB064E4CEB164C4FF000061EEB1C
:10129000074E4CEB174B18EB0B0840F1000018EB16
:1012A0000E0B58EB000840F100008F1A4FF00001C0
:1012B0003CBFC943661B14BFB5EB040C00213CBF07
:1012C000C943F61B4FEA17444EEA8E0E27EA04453F
:1012D0004FEA1C4704FB07622CEA074C05FB07F7A3
:1012E0000CFB05F604FB0CFC16EB074642EB174221
:1012F00016EB0C4642EB1C421BEB060658EB0202B7
:10130000414146EA9E0601D5BDE80189B619524120
:1013100041EB0101A3F10103BDE801894FEA144546
:101320004FEA114724EA054621EA074C05FB07F47A
:1013300006FB07F70CFB06F105FB0CFC11EB074164
:1013400044EB17444FEA124711EB0C4144EB1C44A9
:1013500022EA074C05FB07F206FB07F70CFB06F633
:1013600005FB0CFC16EB074642EB174216EB0C464E
:1013700042EB1C456A1854F1000148BF7047B6198A
:10138000524141EB0101A3F10103704795F0000FB9
:1013900037D04FEA11424FEA144721EA024624EAC5
:1013A000074C02FB07F106FB07F70CFB06F402FBF8
:1013B0000CFC14EB074441EB17414FEA154714EBC3
:1013C0000C4441EB1C4125EA074C02FB07F506FBE8
:1013D00007F70CFB06F602FB0CFC16EB074645EB89
:1013E000174516EB0C4645EB1C42121951F1000152
:1013F00048BF7047B619524141EB0101A3F1010307
:1014000070474FEA14454FEA114724EA054621EA9E
:10141000074C05FB07F106FB07F70CFB06F24FF044
:10142000000605FB0CFC12EB074241EB174112EBE7
:101430000C4251EB1C4148BF7047921841EB01012F
:10144000A3F101037047FEE77047000004490A68F2
:10145000431C00D0401C0B689B1A8342FBD370478F
:101460003C0000202DE9F04186B000242A48009479
:10147000019402940394816941F0100181618169B2
:1014800001F010010491816941F0200181618169BD
:1014900001F020010491816941F0040181618169B9
:1014A00001F004010491816941F0080181618069C2
:1014B000012200F00800DFF864805303049019460D
:1014C000404600F034F801250226CDE90035CDE98B
:1014D00002466946404600F02FF8CDE90054104F0F
:1014E00069463846029500F027F800966946384666
:1014F000CDE9014500F020F800220421404600F02B
:1015000016F804208DE831006946384600F014F8DA
:1015100006B0BDE8F081000000100240001001405C
:10152000000801408068084000D0012070470AB1DF
:10153000016170470904FBE72DE9F84FDFF89C9142
:101540000024A9F1040B23460F2709F1040AABF18B
:10155000040EBBE00125A5402A40AA4276D1DFF85F
:1015600080C14E68A6EB0C0866452BD00DDC032E1F
:1015700034D005DC36B3012E19D0022E2FD11BE05A
:10158000112E16D0122E2AD119E0B8F5881F19D0C5
:1015900006DCB8F5803F15D0B8F5801F1FD111E0EB
:1015A000B8F5001F0ED0B8F5041F18D10AE0CB68BB
:1015B00015E0CB681B1D12E0CB6808330FE0CB6849
:1015C0000C330CE08B682BB1012B4FF0080303D0D8
:1015D000456104E0042302E0056100E00023FF2AE6
:1015E00001D8064601E000F104064FEA840501D95E
:1015F000A5F12005D6F8008007FA05FC28EA0C08BA
:1016000003FA05F548EA0508C6F800804D68ED00C4
:101610005BD5344DAE6946F00106AE61AD6924F08C
:10162000030605F0010500952F4D06EB050CDCF8CF
:101630000850A607360F07FA06F825EA0805DFF86E
:10164000AC80404503D14FF0000810E03DE0DFF8EA
:10165000A080404502D14FF0010808E0DFF89480F7
:10166000404502D14FF0020801E04FF0030808FAAC
:1016700006F848EA0508CCF808804D68D9F80060FB
:10168000ED024D4601D5164300E096432E604D68AD
:10169000DAF80060AD02554601D5164300E09643E6
:1016A0002E604D68DBF80060AD035D4601D5164342
:1016B00000E096432E604D68DEF80060ED0375464D
:1016C00001D5164300E096432E60641C0A6832FA86
:1016D00004F57FF43FAFBDE8F88F00000804014037
:1016E00000001110001002400000014000080140FD
:1016F000000C014000100140014880687047000064
:101700003400002070B5040025D094F83D00002579
:1017100020B984F83C50204600F00EFB242084F8C9
:101720003D002068016821F0010101602068016826
:1017300041F4004101602068016821F4004101602A
:1017400000F048FC4D4A6168914201D84C4900E0E4
:101750004C49884201D2012070BD4B492368B0FB3F
:10176000F1F15E6826F03F060E435E6063689342C7
:1017700006D94FF4967359434FF47A73B1FBF3F1E2
:101780002368491C1E6A26F03F06314319626168CE
:10179000914210D84900401EB0FBF1F2521CC2F336
:1017A0000B02042A01D2042022E0B0FBF1F0401C1D
:1017B000C0F30B001CE0A268F2B301EBC10303EB22
:1017C0000116431EB3FBF6F35B1C43F480431B0579
:1017D00049D092B301EBC10202EB0111401EB0FBF4
:1017E000F1F0401CC0F30B0040F4804040F4004096
:1017F0002168CA694CF6FF739A431043C861D4E963
:10180000071001432068026822F0C0021143016002
:10181000D4E9030101432068826848F2FF339A4308
:1018200011438160D4E9050108432168CA6822F0A8
:10183000FF021043C86001E00EE016E02068016876
:1018400041F0010101602564202084F83D002563FA
:1018500084F83E50002070BD01EB4106431EB3FBEF
:10186000F6F35B1CB3E70120C2E701EB4101401E28
:10187000B0FBF1F0401CC0F30B00B7E7A0860100FD
:1018800080841E0000093D0040420F002DE9F84F02
:101890001F4690468A460446DDF82890FFF72CFF45
:1018A000054694F83D0020287FD1192301224049A4
:1018B0002046009500F0ECFE002876D194F83C001C
:1018C000012872D0012084F83C0020680168C90713
:1018D00003D1016841F0010101602068016821F431
:1018E00000610160212084F83D00102084F83E0052
:1018F00000262664C4F824806785608D20852D48E5
:10190000E0622B464A465146204600F075FD90B9EC
:10191000206841698069009036E02A4649462046A1
:1019200000F094FF50B1206C042804D120680168B5
:1019300041F4007101600120BDE8F88F606A216800
:1019400000780861606A401C6062618D491E618593
:10195000218D491E89B2218522685369DB435B07CB
:101960000BD451B100781061606A401C6062608DD8
:10197000401E6085208D401E20852A46494620460F
:1019800000F05AFE0028CED1208D0028C5D154F891
:101990003D0B016841F400710160202004F81E092C
:1019A000E67766770020C7E7FFE70220C4E700007C
:1019B000020010000000FFFF2DE9FF4F83B000255B
:1019C000DDE910799A4693460446DDF84880009593
:1019D000FFF792FE064694F83D0020287CD119239B
:1019E000012285492046009600F052FE0028F5D1DC
:1019F00094F83C0001286FD0012084F83C00206856
:101A00000168C90703D1016841F001010160206844
:101A1000016821F400610160222084F83D0040202B
:101A200084F83E0025646762A4F82A90608D2085C2
:101A30007248E062CDE9008653465A462046049932
:101A400000F028FD00287DD1208DDFF8B4912027FB
:101A500068B1012814D00228206801681ED041F422
:101A6000806101602068416980690090B6E020686B
:101A7000416981690091016841F400710160ADE044
:101A80002068016821F48061016072B620684169B4
:101A900081690091016841F400710AE041F400613C
:101AA000016072B62068416981690091016821F482
:101AB0008061016062B691E0032868D801280CD0EB
:101AC000022843464FF000024946204600960FD0B8
:101AD00000F0DEFDB0BB10E08BE032464146204610
:101AE00000F07CFE70BB20680069616A08706CE0E1
:101AF00000F0CEFD30BB72B634E02068016821F4FE
:101B00008061016072B620680069616A0870606A6D
:101B1000401C6062208D401E2085608D401E6085C7
:101B2000384846F2A8110068B0FBF1F0C0EBC000E5
:101B300000EB80000090401E009008D020684069B3
:101B4000C04300E029E040070CD50098F3E744F8D3
:101B5000305F6773A573206940F02000206162B692
:101B600025731AE02068016841F400710160206863
:101B70000069616A0870606A401C6062218D491EBC
:101B80002185618D491E618562B621681BE0324660
:101B90004146204600F022FE18B1012007B0BDE802
:101BA000F08F20680069616A0870606A401C60629A
:101BB000218D491E2185618D491E618521684A69F3
:101BC000D24352070AD409690170606A401C6062FE
:101BD000208D401E2085608D401E6085208D002850
:101BE0007FF46AAF84F83D7084F83E5084F83C502E
:101BF000D4E70220D2E70000020010000000FFFF3F
:101C000004000100400000202DE9FF4F83B09A46F8
:101C1000DDE9119793460446DDF84080FFF76CFD3F
:101C2000054694F83D0020287FD119230122404920
:101C30002046009500F02CFD002876D194F83C0059
:101C4000012872D0012084F83C0020680168C9078F
:101C500003D1016841F0010101602068016821F4AD
:101C600000610160212084F83D00402084F83E009E
:101C700000262664C4F82480A4F82A90608D20856C
:101C80002C48E062CDE9007553465A462046049937
:101C900000F07EFC70B930E02A463946204600F05C
:101CA000D5FD58B1206C042804D12068016841F4A6
:101CB00000710160012007B0BDE8F08F606A216803
:101CC00000780861606A401C6062218D491E89B2FB
:101CD0002185628D521E628522685369DB435B0752
:101CE0000BD469B100781061606A401C6062208D7D
:101CF000401E2085608D401E6085208D0028CBD140
:101D00002A463946204600F097FC0028CAD154F8EC
:101D10003D0B016841F400710160202004F81E09A8
:101D2000E67766770020C6E7FFE70220C3E70000FA
:101D3000020010000000FFFF10B586B000210091E6
:101D400001910291039100680F4988421AD10F4C0A
:101D5000A06940F00800A061A069694600F0080091
:101D60000490C020009012200190032003900848A6
:101D7000FFF7E2FBE06940F40010E061E06900F485
:101D80000010049006B010BD005400400010024046
:101D9000000C01400248816802781144816070475C
:101DA00034000020074810B5016841F010010160BF
:101DB000032000F067F80F2000F006F800F024F888
:101DC000002010BD0020024070B50D4D04464FF4B8
:101DD0007A712878B1FBF0F00A490968B1FBF0F09C
:101DE00000F0BEFA48B9102C07D200222146501E3E
:101DF00000F028F800206C6070BD012070BD00006C
:101E000034000020400000200C4808B5816941F0F2
:101E100001018161816901F001010091C16941F015
:101E20008051C161C06900F0805000900448416851
:101E300021F0E06141F00071416008BD00100240F6
:101E400000000140F0B40E4B1B680C46C3F30223A4
:101E5000C3F10705042D00D90425191D072901D256
:101E6000002300E0DB1E012606FA05F1491E214091
:101E700099409E40761E16403143F0BC00F080BF72
:101E80000CED00E0064900F0070208684FF6FF037A
:101E9000184040EA0220034A1043086070470000DF
:101EA0000CED00E00000FA052DE9F0470F460500B3
:101EB00061D0434E306800F00700B84209D2306864
:101EC00020F0070038433060306800F00700B84267
:101ED00051D128683B4C810712D5400703D5606873
:101EE00040F4E06060602878000703D5606840F443
:101EF000605060606068A96820F0F000084360608E
:101F00002878C00728D06868012810D021680228E6
:101F100010D0890700292EDA616821F003010143FE
:101F20006160FFF7E9FB804641F288390DE02168E6
:101F30008903EFE78901EDE7FFF7DEFBA0EB08017E
:101F4000494502D90320BDE8F0876068696800F060
:101F50000C00B0EB810FEFD1306800F00700B84201
:101F60000BD9306820F0070038433060306800F04B
:101F70000700B84201D00120E5E72878400705D5E1
:101F80006068E96820F4E060084360602878000732
:101F900006D56068296920F4605040EAC10060609D
:101FA00000F028F86168084AC1F30311515CC84089
:101FB0000649086006480068FFF706FF0020C2E7F0
:101FC000002002400010024080480008400000202D
:101FD000380000200448054900684968044AC1F3F4
:101FE0000221515CC84070474000002000100240B0
:101FF000904800080E4A51680E4801F00C03042B6B
:1020000011D0082B0FD10C48C1F38343C903C05C26
:102010000AD55168084AC1F34041921E515C054AF5
:102020005043B0FBF1F0704704494843704700004B
:102030000010024000127A007048000800093D00BC
:102040002DE9F84F040070D02078C04DC00749D06A
:102050006868C0F38100012807D06868C0F3810078
:10206000022809D16868C00306D52868800339D5DD
:1020700060680028E7D035E06068B0F5803F0BD09D
:1020800010B1B0F5A02F11D0286820F4803028605E
:10209000286820F4802002E0286840F4803028601E
:1020A000606890B1FFF728FB06460AE0286840F414
:1020B00080202860F0E700BFFFF71EFB801B64282C
:1020C00073D828688003F7D50CE0FFF715FB0646A8
:1020D00005E000BFFFF710FB801B6428F0D82868DC
:1020E0008003F7D420789A4E80074FF001094FF013
:1020F000000839D5686810F00C0F07D06868C0F385
:102100008100022809D16868C00306D428688007C6
:1021100014D52069012808D110E02069B0B1C6F8B3
:102120000090FFF7E9FA074605E00AE1FFF7E4FA55
:10213000C01B0228C4D828688007F7D528686169C1
:1021400020F0F80040EAC10028600DE0C6F80080E9
:10215000FFF7D2FA074604E0FFF7CEFAC01B0228C9
:1021600023D828688007F7D4207800072CD5794831
:10217000A169D9B1C0F80090FFF7BEFA074604E0A4
:10218000FFF7BAFAC01B02280FD8686A8007F7D594
:1021900071484FF4FA510068B0FBF1F0009000BFB5
:1021A0000098411E0091FAD20EE080E0C0F8008055
:1021B000FFF7A2FA074604E0FFF79EFAC01B0228C9
:1021C00075D8686A8007F7D42078400760D5E86939
:1021D0000027C00008D4E86940F08050E861E86951
:1021E000012700F0805000905C480168C90513D4B5
:1021F0000168834641F480710160FFF77DFA8246F1
:1022000006E000BFFFF778FAA0EB0A0064284ED87A
:10221000DBF80000C005F5D5E06801280AD008B158
:10222000052813D0286A20F001002862286A20F0CF
:10223000040002E0286A40F001002862E06841F2F0
:10224000883B98B1FFF758FA82460BE0286A40F0C5
:1022500004002862EEE700BFFFF74EFAA0EB0A0188
:1022600059455AD8286A8007F6D50CE0FFF744FA9A
:10227000824605E0FFF740FAA0EB0A0159454CD829
:10228000286A8007F6D41FB1E86920F08050E86121
:10229000E06988B36968C1F38101022944D002284A
:1022A000C6F8608004D0FFF727FA044638E034E02F
:1022B000FFF722FA074604E0FFF71EFAC01B0228C8
:1022C0002BD828688001F7D4206AB0F5803F05D16B
:1022D0006868A16820F4003008436860D4E9080108
:1022E0000843696821F4741108436860C6F8609077
:1022F000FFF702FA044606E025E000BFFFF7FCF90D
:10230000001B022809D828688001F7D51BE000BF10
:10231000FFF7F2F9001B022802D90320BDE8F88F6D
:1023200028688001F4D40EE00128F7D06868226A9A
:1023300000F48031914204D1616A00F47010884247
:1023400001D00120EAE70020E8E700000010024089
:1023500000004242800442424000002000700040E1
:1023600010B5401EB0F1807F01D3012010BD4FF0A9
:10237000E02460610F21601700F002FD0020A061E1
:1023800007202061002010BDFEE700000C4810B5BA
:102390000A4901600B49416000214FF4804281608D
:1023A000C0E9031241618161C1610162FFF7AAF9CD
:1023B000002801D072B6FEE710BD000000540040B6
:1023C00048040020801A060001684A69D243520579
:1023D0000FD46FF480624A61002140F8301F202240
:1023E00042738173026942F00402026101730120A9
:1023F0007047002070470000F8B50446C06A1E46CA
:102400000D461746082807D0012805D010F5803F53
:1024100002D0206B122804D12068016841F4807139
:102420000160134600224FF001112046009600F093
:102430002FF940B120680068C00502D54FF4007044
:1024400020640320F8BD2069B0F5804F0ED006202F
:10245000216800EAD51040F0F000086133463A46A2
:102460000B49204600F05CF978B902E005F0FE0067
:1024700000E0E8B221680861054933463A46891F01
:10248000204600F04DF90028DCD00120F8BD000006
:10249000080001002DE9F84F0446006889460B9DAD
:1024A00001689846174641F4806101602068016820
:1024B00041F48071016000954FF0011B00225946E4
:1024C00020460A9B00F0E4F84FF4007A40B12068FF
:1024D0000068C00501D5C4F840A00320BDE8F88F0E
:1024E000216809F0FE0008612B46284920460A9A17
:1024F00000F016F9F0BB20684169806900902A4617
:1025000020460A9900F0A2F940B1206C04283AD183
:102510002068016841F40071016034E0FEB2B8F156
:10252000010F09D02168380A08612A4620460A9915
:1025300000F08CF90028E8D1206806612A46204680
:102540000A9900F083F90028DFD12068016841F47E
:102550008071016000950022594620460A9B00F0D8
:1025600097F80028B3D1216809F0FF0040F001007E
:10257000086100E007E02B46044920460A9A00F073
:10258000CFF80028AAD00120A8E70000020001002F
:102590002DE9F843044600680D46DDE90897016817
:1025A0009846164641F4807101604B4600224FF078
:1025B00001112046009700F06BF848B120680068D0
:1025C000C00502D54FF4007020640320BDE8F883F5
:1025D000216805F0FE0008613B464A461549204641
:1025E00000F09EF888B920684169806900903A46F9
:1025F0004946204600F02AF948B1206C042804D14D
:102600002068016841F4007101600120DEE7F5B245
:10261000B8F1010F09D02168300A08613A464946ED
:10262000204600F013F90028E7D12068056100205A
:10263000CCE700000200010070B516460D460446C6
:102640001EE02046FFF7C0FE08B1012070BD681CE7
:1026500016D0FFF751F8801BA84200D885B9206832
:102660004069C04340070BD5002044F8300F2021BB
:102670006173A073216941F0200121612073E4E7B7
:1026800020684069C0434007DBD4002070BD0000D3
:102690002DE9F047984617460D460446C1F3074614
:1026A000DDF820902AE000BFB8F1FF3F26D0FFF709
:1026B00023F8A0EB0901414502D8B8F1000F1DD164
:1026C0002068012E16D0806925EA00000004000C65
:1026D00012D00020B84211D1002044F8300F202140
:1026E0006173A073216941F02001216120730120F1
:1026F000BDE8F0874069E7E70120EBE72068012E9D
:102700000AD0806925EA00000004000C06D00020F1
:10271000B842C9D00020EBE74069F3E70120F7E7B2
:102720002DE9F047984616460D4604464FF000093D
:102730004FF0200AC1F3074723E020684069C043F7
:10274000400515D42068016841F4007101602168DA
:102750006FF480604861C4F8309084F83DA084F83C
:102760003E90216C41F00401216484F83C9021E00A
:10277000701C06D0FEF7C0FFA0EB0800B04203D8E3
:1027800016B1012F1FD021E02068012F15D08069DC
:1027900025EA00000004000C18D000BF44F8309F68
:1027A00084F80DA084F80E90216941F02001216188
:1027B00084F80C900120BDE8F087406925EA00000C
:1027C0000004000CEAD12068406901E020688069BB
:1027D00025EA00000004000CAFD1ECE72DE9F04140
:1027E000002590460E460446202728E04069C04355
:1027F000C0060CD454F8301B6FF01000486144F848
:1028000010596777A577206A2062257714E0FEF7D4
:1028100073FFA0EB0800B04200D886B92068406979
:10282000C04340060BD544F8305F6773A573206939
:1028300040F02000206125730120BDE8F081206870
:102840004169C9434906D1D40020F6E770B5164660
:102850000D4604461EE02046FFF7B6FD08B10120F4
:1028600070BD681C16D0FEF747FF801BA84200D839
:1028700085B920684069C04300060BD5002044F8A4
:10288000300F20216173A073216941F02001216183
:102890002073E4E720684069C0430006DBD40020D1
:1028A00070BD00002DE9F0410CAC94E8E30100F0AC
:1028B0007DFC124C31466061284600F077FCA06137
:1028C0003846414600F072FCE0610D49E06801F0D5
:1028D000B1F905460B49206201F0ACF901462846E2
:1028E00001F00AFA014620614FF07E5001F092FBA0
:1028F000294601F0C3FAE060BDE8F0811000002035
:102900000AD7233CCDCCCC3D2DE9F04186B08046A2
:10291000012504A8CDE9000564242B467522D021A9
:1029200002944046FFF748F89DF81000682830D11F
:10293000002703AE8DF80C700096CDE901540123F9
:102940006B22D0214046FFF75FF907208DF80C007D
:102950000096CDE9015401231922D0214046FFF70A
:1029600053F98DF80C700096CDE9015401231C2217
:10297000D0214046FFF748F98DF80C700096CDE95C
:10298000015401231B22D0214046FFF73DF99DF859
:10299000100006B0BDE8F081F0B585B00C466423A8
:1029A000062203A98DE80E0001234322D021FFF760
:1029B00003F8BDF80C0040BA00B22084BDF80E1038
:1029C00049BA0EB26684BDF8101049BA0DB2A5849A
:1029D00000F01EFE0D4F00223B4600F0C1FCC4E992
:1029E0000A01304600F014FE00223B4600F0B8FC1D
:1029F000C4E90C01284600F00BFE00223B4600F023
:102A0000AFFCC4E90E0105B0F0BD000000606040FD
:102A1000FEE7FEE7704710B5002000F025F8BDE89E
:102A2000104000F041B9000070B5802813D2402951
:102A300011D20B4B012401F007051E79AC40094B64
:102A4000C90800EBC1100EB132B101E0012A03D078
:102A5000195CA143195470BD195C2143FAE70000C9
:102A6000080000204400002028B1FF224FF48061BC
:102A70000248FDF7C2BC0022F8E700004400002035
:102A8000014A1080518070470800002010B552485C
:102A9000401EFDD140F6C210401EFDD1AE220021E5
:102AA000782000F041FB20220021782000F03CFB40
:102AB00010220021782000F037FBB022002178207E
:102AC00000F032FBC8220021782000F02DFB00220C
:102AD0001146782000F028FB10220021782000F019
:102AE00023FB40220021782000F01EFB81220021E0
:102AF000782000F019FBFF220021782000F014FB61
:102B0000A1220021782000F00FFBA62200217820CE
:102B100000F00AFBA8220021782000F005FB3F22EC
:102B20000021782000F000FBA4220021782000F092
:102B3000FBFAD3220021782000F0F6FA0022114699
:102B4000782000F0F1FAD5220021782000F0ECFA8C
:102B5000F0220021782000F0E7FAD9220021782025
:102B600000F0E2FA22220021782000F0DDFADA22D9
:102B70000021782000F0D8FA12220021782000F0FD
:102B8000D3FADB220021782000F0CEFA20220021A7
:102B9000782000F0C9FA8D220021782000F0C4FAD4
:102BA00014220021782000F0BFFAAF220021782003
:102BB00000F0BAFA2E220021782000F0B5FA0020A9
:102BC000FFF752FF00F070F80448002101804180B7
:102BD00001214171084610BD8FD00300080000207C
:102BE0002DE9F047814625480D46924601882A780E
:102BF0001144802905D280464088697808444028DD
:102C000002D30020BDE8F08700262AE0A9F12001C8
:102C100001FB00606A68002432F810701DE000BFFC
:102C200007FA04F0000409D5B8F80210B8F800005B
:102C30003144204489B280B252460BE0BAF1000F11
:102C40001AD00022B8F80210B8F80000314420442D
:102C500089B280B2FFF7E8FE641C2878A042DFD872
:102C6000761C6878B042D1D8B8F800102A78484667
:102C70001144A8F80010C5E70122E3E7080000208E
:102C800070B515460E46044609E02A463146FFF760
:102C9000A7FF2178884201D0C8B270BD641C20789B
:102CA0000028F2D1C0B270BD70B5104D002400BF35
:102CB00004F1B000C2B20021782000F035FA002201
:102CC0001146782000F030FA10220021782000F020
:102CD0002BFA05EBC41280234021782000F034FA4F
:102CE000641CE4B2082CE3D370BD00004400002053
:102CF0007047FFF74FB830B58FB028216846FDF711
:102D000084FB14210AA8FDF780FB01210804CDE90A
:102D100000100024029402250491CDE907504FF4DD
:102D2000E01009906846FFF78BF908B172B6FEE72C
:102D30000F20CDE90A054FF48060CDE90C40022157
:102D40000AA80E94FFF7B0F8002801D072B6FEE78B
:102D50000FB030BD7047FEE7490050EAC12018BFF0
:102D600004204A0D18BF40F0010040F2FF72B2EBA0
:102D7000515F08BF40F00200012808BF05207047DE
:102D80000907090E002804DB00F1E02080F8001498
:102D9000704700F00F0000F1E02080F8141D70472C
:102DA00030380A2801D20120704700207047000007
:102DB0002DE9F04F8BB0364EDDF8A0A00025EB4694
:102DC0003349A1F17800FFF7E7FDD6E90E010B4684
:102DD000024600F035FC80468946D6E90C010246E1
:102DE0000B4600F02DFC04460F46D6E90A010246C8
:102DF0000B4600F025FC3B46224600F009FA42460D
:102E00004B4600F005FA00F069F900F0CFF9CAF876
:102E100004004BF825005C463220FEF717FB6D1CC2
:102E2000ADB2052DCCD301260DF1140504EB8600BF
:102E300050F8041C406801F0EDF845F82600761CB7
:102E4000B6B2042EF2D3134A134E00204FF40003FF
:102E500055F82010994204DB05EB80077F68974204
:102E600006D291420DD305EB80014968994208DBF7
:102E700054F82010B14204DBDAF80C10491CCAF8EF
:102E80000C10401C80B20328E2D30BB0BDE8F08FD9
:102E9000C0040020000080800000484296B0FEF789
:102EA00081FFFFF728FFFEF7DDFAFFF76FFA73489F
:102EB000FFF72AFDFFF7EAFD704D714C64354FF0C6
:102EC0000008C5F80C804FF07E50C4E90280DFF89E
:102ED000ACA16C4FDFF8B09105F124004FF4005B1A
:102EE0001590502268461599FDF755FA0AF17806B3
:102EF00096E80F00FFF7D6FC502214956846159906
:102F0000FDF749FA96E80F00FFF752FF0121384616
:102F1000FEF708FBE8BB208801283FD10122594673
:102F20004E464846FEF703FBFFF775FD1E21322093
:102F3000FFF7A6FD514855A15430FDF755F94F480C
:102F4000012254495430FFF79BFEFFF7ADFE0121EB
:102F50003846FEF7E7FA012801D1A4F800800121E4
:102F60003846FEF7DFFA08B9208898B1012204211B
:102F70003046FEF7DCFA4FF49670FEF767FA00224F
:102F800004213046FEF7D3FA4FF4FA70FEF75EFAEA
:102F9000DDE703E001202080FFF73DFD02213846F8
:102FA000FEF7C0FA18B9FFF736FDC5F80C800A2104
:102FB0000020FFF765FD686800F010FE02462F480C
:102FC0000B4635A15430FDF70FF92C480122314949
:102FD0005430FFF755FE14210020FFF751FD27481C
:102FE00032A15430EA68FDF7FFF82448012229494C
:102FF0005430FFF745FE1E210020FFF741FD1F4E14
:103000002DA17836A6F12400D6E90A23FDF7ECF8C5
:1030100001222049A6F12400FFF732FE28210020DA
:10302000FFF72EFDD6E90C2326A1A6F12400FDF71B
:10303000DBF801221749A6F12400FFF721FE322117
:103040000020FFF71DFDD6E90E2321A1A6F12400E3
:10305000FDF7CAF801220F49A6F12400FFF710FE80
:10306000FFF722FED9F80C1061602BEA010201F48F
:10307000005142EA0141C9F8101032E7480400202B
:1030800010000020000801400010014053746F70D0
:1030900000000000000000204D61676E69747564D7
:1030A000653A3D20252E326600000000537465709D
:1030B000733A3D2025640000417A3A3D20252E32A6
:1030C0006600000047793A3D20252E326600000058
:1030D000477A3A3D20252E32660000002DE9F04166
:1030E00006460F4600F0AAFB041E0D4618BF01203D
:1030F000284320F00040C0F17F6000F1E040C00FA5
:103100000ED0301C18BF0120384320F00040C0F121
:103110007F6000F1E040C00F04BF0120FDF7A4F97B
:1031200020462946BDE8F0811CB502238DF8041025
:103130000A2100918DF80520014601AA0148FEF7F9
:10314000A5FB1CBD4804002070B5C2B000248DF85A
:10315000041001A904E0155D0E19641C7570E4B239
:103160009C42F8D30A2100915B1C01469BB201AA44
:103170000248FEF78BFB42B070BD000048040020FF
:1031800010B500290AD00878002807D005487844EF
:10319000FDF74AFD002801D0002010BD0248784408
:1031A00010BD0000BE170000B617000021F000425D
:1031B000A2F16052B2F5801F01F0004328BFD2F1A6
:1031C0007F6C0BD95FEA001C43EAC20242EB5070ED
:1031D00018BF704728BF20F001007047B2F5801F6C
:1031E000BCBF184670474FEA410C1CF5001F02D2C5
:1031F000084600F00ABF70B500F0CCFA0000008964
:10320000FFF7F6BF4FF00040A0F5800070470000C8
:1032100010B591EA030F48BF83F0004300F1FC832F
:10322000841A71EB030C05D2121943EB0C03001B3B
:1032300061EB0C01DFF824E14FEA1154A4EB135CBD
:103240001EEA430F18BF9EEA445F73D023EA0E03C1
:10325000DCF1200E21EA045143F4801332D322FA28
:103260000CFE10EB0E0023FA0CFE41EB0E01CCF12C
:10327000200E03FA0EFE10EB0E0051F10001B1F525
:10328000801FCCF1200E32D201EB045112FA0EF263
:10329000BDE8104058BF7047401C38BF5FEA42028B
:1032A00018BF7047002814BF20F0010041F1000151
:1032B0004FEA410313F5001F38BF7047A1F1C04129
:1032C00000F0B6BA012A43EB0302ACF1200CDCF1AA
:1032D0001F0E32BF4FF0000E23FA0CF310EB030069
:1032E00041EB0451B4EB115FD0D0A1EB045101F5D7
:1032F000801149085FEA300001EB04510ED350F110
:10330000000038BF12FA0EFE08D1BDE81040C9E730
:10331000401C38BF5FEA4202CAD1C3E7BDE8104093
:103320004FEA410313F5001F38BF7047A1F1C041B8
:1033300000F07EBA9EEA445F08D011EA5E0FBDE855
:10334000104004BF01F0004100207047BDE810406C
:1033500070B500F01FFA00BF64FBBE3E0000E0FF46
:103360002DE9C04130B4DFF8A0C23CEA111418BF07
:103370003CEA131400F0EC8081EA03051CEA111406
:1033800044EAD57418BF1CEA131500F0C780A4EBFB
:1033900005044FF0004545EAC12145EAC32341EA4F
:1033A000505143EA525304F17F74994204F50034BA
:1033B0004FEAC0204FEAC22208BF904200F09C8032
:1033C0004FEA13650FF24016765D4FEA134506FB90
:1033D00005F7C7F1807706FB07F74FEAD737A7FB5A
:1033E00003687642C8F58038A7FB06CE38BFA8F13F
:1033F000010807FB08E64FF0000EA6FB028CE6FB77
:1034000003CEDCF1000CCEF1004E38BFAEF1010E60
:10341000A6FB0C584FF000074FF00005E6FB0E87A7
:10342000A1FB08C6A0FB07CE16EB0E0645F1000572
:10343000E1FB076515F1E04E7EBFA4F580345FEA3D
:1034400046066D4116F1800745F100054FEA172742
:103450004FEA066647EA0567A6F1DE46B6F1805FE9
:103460004FEA15251FD9384624F0010C05EBC4712D
:10347000BCF1FE6F01EB0C1102D8F0BCBDE800817D
:1034800024425CBF01F5801E9EEAC47F02D4F0BCDA
:10349000BDE80081244238D4F0BCA1F1C041BDE8B0
:1034A000004100F0C5B94FEAD22242EA43524FEA46
:1034B000D323A7FB02864FEAD02040EA415007FB06
:1034C00003661EEA0E0F4FEAD12105FB026658BFC4
:1034D000A6EB0056B6EB00564FEA520E4EEAC37EFC
:1034E00018EB0E0E56EB530EBDD518EB02085E41DD
:1034F0007F1C55F10005B6E74FF480154FF000072B
:103500004FF000064FF00008ADE7F0BC4FF00000B0
:1035100001F1C04101F00041BDE8008111EA0C1F3A
:103520000CEA131500D00CE013EA0C1F00F0258004
:103530004FF00000F0BC81EA030101F00041BDE85A
:103540000081F0BCBDE8004181EA030100F070B9E0
:10355000F0BCBDE8004170B500F01CF9097EFC3EEE
:1035600000F007B881EA03014FF0000001F00041CC
:10357000704781EA030100F05BB9F0BCBDE800418F
:103580004FF0000021497047FFFDFBF9F7F5F4F219
:10359000F0EEEDEBE9E8E6E4E3E1E0DEDDDBDAD8EE
:1035A000D7D5D4D3D1D0CFCDCCCBCAC8C7C6C5C44C
:1035B000C2C1C0BFBEBDBCBBBAB9B8B7B6B5B4B363
:1035C000B2B1B0AFAEADACABAAA9A8A8A7A6A5A44E
:1035D000A3A3A2A1A09F9F9E9D9C9C9B9A99999812
:1035E0009797969595949393929191908F8F8E8EB5
:1035F0008D8C8C8B8B8A8989888887878685858442
:1036000084838382828181800000FF070000F87F2D
:1036100010F0004248BF4042B0FA80F310FA03F1C4
:103620000AD0C3F11D0303F580634FEA415002EB5A
:10363000035202EBD12170474FF0000070470000A9
:10364000DFF848C170B51CEA111E1EBF1CEA131535
:103650009EEA0C0F95EA0C0F00F06F8081EA0304DC
:1036600023EA4C134EEAD47E21EA4C1141F4801136
:1036700043F48013AE44A1FB024CA0FB0365AEF102
:103680007F7E361955EB0C05A1FB034C4CF1000372
:10369000A0FB021C16EB0C06654153F10003094226
:1036A00018BF46F0010613F4007F0BD14FEA033137
:1036B0004FEA0530340341EA155140EA16506FF0E5
:1036C00003020AE04FEAC3214FEAC520F40241EAAF
:1036D000555140EA56506FF0020202EB2E4201EBC8
:1036E000025585EACE710AD05FEA440C18BF24F077
:1036F000004450F1000041F1000120EAD47040F292
:10370000FE7C624500D270BDA84214BF4FF08044D9
:103710004FF04044002E08BF0024BEF1806FA8BFC8
:10372000A1F1C041BDE8704080F282804FF00000FE
:1037300001F1C04101F0004170479EEA0C0F0CEA14
:10374000131518BF95EA0C0F06D04FF0000081EA60
:10375000030E0EF0004170BD00F01CF88900013E20
:1037600000F007B800F009B84FEA430C5FEA5C5C70
:1037700008D081EA030100F05BB84FEA410C5FEA30
:103780005C5CF6D14FF00000014970470000FF0774
:103790000000F87F0EF1020E2EF0030E5EF8046BAF
:1037A000364205D4012A43EB030515F5001F12D854
:1037B000012841EB010C1CF5001F0CD80ED14FEA7B
:1037C000D17C15F5001F0CEB4C0C0CF1020C08BF62
:1037D0004CEBD37C04E04FF0080C01E04FEAD37CC3
:1037E0000CEB4C0526FA05F606F00706B6F1040CBC
:1037F00006D20EEB860CBDE870404CF0010C604721
:10380000DFE80CF0090B02024FF000414FF000001E
:10381000A1F5002170BD19461046012851EB0104A5
:1038200018BFD4F5001484BF002001F0004170BD22
:103830000808A0F500114FEA310170472DE9F04169
:1038400001F5801CBCF5001FC0F2C3804FEA115C7B
:1038500021EA0C510CF1FD0C41F480115FEA5C0C83
:103860000CF5C07C01D3400049413DA4890241EAE6
:10387000905187028E0E0A0CA45D04FB04F602FB35
:1038800006F6C6F14046A4FB0662F60D46EA42265D
:1038900006FB06F4A4FB01235242C3F1404338BFA8
:1038A0005B1EA6FB02420024E6FB0324D20B42EA85
:1038B0004446A6FB0623A1FB02E2A3FB07E4A418EF
:1038C0004FF0000252F10002E3FB01426442C2F1F8
:1038D000404E38BFAEF1010EA6FB04234FF00002AC
:1038E000E6FB0E32A2FB03464FF00004B61954F17A
:1038F0000004E2FB0264A1FB06E6A4FB07E816EB6A
:1039000008064FF0000858F10008E4FB0168764211
:10391000C8F1405838BFA8F10108A2FB06E4A3FB98
:1039200008E52D194FF0000454F10004E2FB08549F
:10393000A1FB05E6A7FB04E818EB06084FF000061C
:1039400056F10006E1FB048618F1200556F1000649
:10395000A809A8F11B08B10908F03F08B8F10A0F3F
:1039600040EA86601CD901EB0C51BDE8F08100BF34
:10397000FCF5EEE8E2DDD8D3CFCBC7C3C0BDB9B606
:10398000B4B1AEACA9A7A5A3A19F9D9B9A9896950B
:103990009392908F8D8C8B89888786858483828192
:1039A000A0FB006800FB01F208EB4208B8EB872897
:1039B00007D5341858EB0104D5D5401C51F100014E
:1039C000D1E7341A78EB0104CDD4401E71F1000127
:1039D000C9E75FEA4C0C5FEA9C5C0DD105D34FF060
:1039E000000001F00041BDE8F081BDE8F04170B594
:1039F000FFF7D0FE6DDBFFBEBDE8F0414FF00000E9
:103A0000004970470000F87F10B591EA030F48BFE6
:103A100083F000433FF504AC841A71EB030C07D22A
:103A200012198CF0004C43EB0C03001B61EB0C01F2
:103A3000DFF8A4E14FEA1154A4EB135C1EEA430F34
:103A400018BF9EEA445F00F0B08023EA6E03524242
:103A500021EA0451C3EB6E0338BF5B1EDCF1200E7C
:103A600025D322FA0CFE10EB0E0043FA0CFE41EBBC
:103A70000E01CCF1200E03FA0EFE10EB0E0051F1F8
:103A80000001CCF1200E29D412FA0EF201EB045100
:103A9000BDE8104058BF7047401C1CBFB2F1004F3A
:103AA000704700280CBF491C20F00100704712EB42
:103AB000020E43EB030218BF4FF0010E4EEA420222
:103AC000ACF1200CDCF11E0E54D943FA0CFE10EBC5
:103AD0000E0051F1FF31CCF11E0ED5D50EF1010EC5
:103AE00012FA0EFE404141EB010101EB445C5FEA3A
:103AF0005C5C10D910EBDE7001EB045138BFBEF1F5
:103B0000004FBDE8104018BF704700280CBF491C8B
:103B100020F00100704730D24FEAD42C11F500118B
:103B200024F400641BD0B1FA81F20B3AA41AA41E4B
:103B3000D2F12003914030FA03F31943904001EB96
:103B4000CC71002C01EB0451BDE81040A8BF7047B8
:103B500001F1C0414FF0000001F000417047B0FAA0
:103B600080F310FA03F100D110BDE41A173C4805A8
:103B7000C90AE4E701EB045110BD491001EB0451FF
:103B8000BDE810404FEA300002E04FF000017047FE
:103B90004A0008BF0042F8D0B2F5001F28BF7047A6
:103BA00001F000414FF0000070479EEA445F07D0EB
:103BB00011EA5E0FBDE8104004BF002100207047ED
:103BC000BDE8104070B5FFF7E5FD00BF40DFF63EF1
:103BD00083F00041104670470000E0FF43004FEAC9
:103BE000D30C4FEA3C0C43401FBF40070CF160511F
:103BF00013F0FE4F70471CF0006F03D100200CF053
:103C0000004170470CF0004343EA507010B540EAA1
:103C1000CC0000F0B4F900BF000000924FEA0001B0
:103C2000FFF706BE4FF000414FF00000A1F5002164
:103C30007047000090EA010F48BF81F0004100F199
:103C4000F081421A3CBF801A89184FEAD0524FF0D7
:103C50007F4C1CEA410FA2EBD15318BF9CEA026FC4
:103C600000F03B804FF0004C4CEA00204CEA012170
:103C700021FA03FC10EB0C0C1ED202F1FF325FEABA
:103C80001C2040EBC25038BF70471CF07F0F4FEA3A
:103C9000400C18BFBCF17F4F38BF7047C3F1200301
:103CA000994008BF20F00100BCF17F4F38BF70473A
:103CB000A0F1C04000F0A9B94FEA3C00000A40EB77
:103CC000C25028BF1CF0FF0F4FEA400CE6D018BFCF
:103CD000BCF17F4F38BF7047EAE79CEA026F05D01E
:103CE00010EA5C0F08BF00F00040704710B500F00C
:103CF00046F900BF64FBBE3E4FF47F0C1CEAD012B5
:103D00001EBF1CEAD11392EA0C0F93EA0C0F00F0CD
:103D1000858090EA010F48BF42F4807240F4000CA5
:103D200041F400002CF07F4120F07F4000B581423B
:103D3000A2EB03020FF2081CACEB504EC0F10000E6
:103D40009EF800E04FEA4E0E00FB0EFC38BF490023
:103D50004FEA2C1C02F5FA020CFB0EF34FEACE1EC2
:103D60004FEA112C4FEAC1210EEB635E42EB224277
:103D70000EFB0CFC4FEA1C5300FB03114FEA112C05
:103D80004FEA01310EFB0CFC4FEADC4C00FB0C113E
:103D9000C14228BF09184CEB03335DF804EB10EB6C
:103DA000410143EBC250B2F57C0F38BF704729D5B3
:103DB00012F0F00F1CBF00F1C04000F0004070474F
:103DC000008182838485868788898B8C8D8E8F91F4
:103DD0009293959697999A9C9D9FA0A2A3A5A7A818
:103DE000AAACAEB0B2B3B5B7B9BCBEC0C2C5C7C944
:103DF000CCCED1D4D7D9DCDFE2E6E9ECF0F3F7FAA8
:103E0000FE0000004FEA400C0CF1807CBCF17E4FBC
:103E100028BF7047B0F1C04000F0F7B890EA010F3A
:103E20000CEAD11348BF42F48072624538BF634543
:103E300007D213F47F0F16D080EA010000F0004093
:103E4000704710B500F09BF8097EFC3E00F005B805
:103E500080EA010000F00040704780EA010000F0B5
:103E6000004000F0D2B812F47F0F04BF0248704740
:103E700080EA010000F0C9B80000C07F4FF47F0C59
:103E80001CEAD0121EBF1CEAD11392EA0C0F93EA6F
:103E90000C0F00F0478090EA010F48BF42F4807297
:103EA0004FF0004C4CEA00204CEA012102EB0302E7
:103EB000A0FB0113A2F50002002918BF43F0010383
:103EC0005B0028BF4FEA330342EB22425FEA132C28
:103ED0004CEBC2502EBFBCEB436FB2F57C0F70476A
:103EE0004FEA036CBCF1004F08BF20F00100B2F5AF
:103EF0007C0F38BF70470BD582F0FF0212F5803F70
:103F0000C8BF704700F1C040D8BF00F00040704704
:103F100000F5000C5FEA4C0C48BF7047B0F1C040A0
:103F200000F073B890EA010F0CEAD11348BF42F4D5
:103F30008072624538BF634504D280EA010000F018
:103F40000040704710B500F01AF800BF8900013E2C
:103F500000F007B800F009B85FEA410C5FEA1C6C9A
:103F600008D080EA010000F050B85FEA400C5FEA38
:103F70001C6CF6D14FF00040A0F5800070470EF1A8
:103F8000020E2EF0030E5EF8044B244204D44FEAD6
:103F90004102B2F17F4F11D84FEA4003B3F17F4F96
:103FA0000CD80ED14FEAD07CB2F17F4F0CEB4C0C09
:103FB0000CF1020C08BF4CEBD17C04E04FF0080C74
:103FC00001E04FEAD17C0CEB4C0324FA03F404F03B
:103FD0000704B4F1040C06D20EEB840CBDE81040CB
:103FE0004CF0010C6047DFE80CF0070802024FF0CC
:103FF0000040A0F5800010BD0846420018BFD2F175
:10400000807288BF00F0004010BDFF2141EAD0500F
:10401000C005704790EA010F48BF81F000413FF5AD
:1040200010AE421A04D882F00042A0EB0200114404
:104030004FEAD0524FF07F4C1CEA410FA2EBD15314
:1040400018BF9CEA026F4AD04FF0004C4CEA0020A7
:104050004CEA012121FA03FCB0EB0C0C0FD412F056
:10406000FE0F36D05FEA4C001DD5001240EBC25067
:1040700038BF70471CF03F0F18BF70470BE0A2F12C
:1040800001025FEA1C2040EBC25038BF70471CF0B1
:104090007F0F18BF7047C3F12003994014BF401E23
:1040A00020F00100704780084FEA122308BF7047D4
:1040B000B0FA80FCA2EB0C02CCF1280C60FA0CF0F8
:1040C00093EA122F04BF00EBC25070474FEAC3704F
:1040D0007047130A5FEADC1008BF7047F6E79CEAF6
:1040E000026F04D010EA5C0F08BF0020704710B5C3
:1040F000FFF745FF40DFF63E81F000407047FCF7D8
:10410000EBBA00000000000000000000000000000A
:10411000000000000000001000100010001000104F
:1041200000100000001000000000002800280028F7
:10413000000000000000000000000000000000245B
:104140000024007C00240048007C00480048000057
:10415000000000380054005000380014005400548F
:1041600000380010000000200054005800300028E3
:10417000005400140008000000000010002800286F
:104180000010003400480048003400000000001017
:1041900000100010000000000000000000000000FF
:1041A0000000000800100020002000200020002057
:1041B000002000100008002000100008000800087F
:1041C000000800080008001000200010003800104F
:1041D00000280000000000000000000000000000B7
:1041E000000000100010007C001000100000000013
:1041F00000000000000000000000000000000000BF
:10420000001000100010000000000000000000007E
:104210000038000000000000000000000000000066
:104220000000000000000000001000000000000876
:1042300000080010001000100010002000200000F6
:10424000000000380044004400540044004400448E
:104250000038000000000010003000500010001076
:10426000001000100010000000000038004400445E
:104270000004000800100020007C0000000000384E
:10428000004400040018000400040044003800004A
:10429000000000080018002800280048007C0008E2
:1042A000000800000000007C00400040007800048E
:1042B00000040044003800000000003800440040C2
:1042C0000078004400440044003800000000007CF6
:1042D0000004000800100010002000200020000052
:1042E000000000380044004400380044004400440A
:1042F0000038000000000038004400440044003C46
:10430000000400440038000000000000000000101D
:10431000000000000000000000100000000000008D
:10432000000000000010000000000000001000105D
:10433000001000000000000C003000400030000CB5
:10434000000000000000000000000000007C0000F1
:10435000007C000000000000000000000000006081
:104360000018000400180060000000000000003881
:1043700000440004000800100010000000100000BD
:10438000000000380044004C0054005C0040004035
:104390000038000000000010002800280028002835
:1043A000007C004400440000000000780044004409
:1043B0000078004400440044007800000000003809
:1043C000004400400040004000400044003800002D
:1043D00000000070004800440044004400440048CD
:1043E000007000000000007C00400040007C0040A5
:1043F00000400040007C00000000007C00400040C5
:1044000000780040004000400040000000000038FC
:10441000004400400040005C0044004400380000BC
:104420000000004400440044007C00440044004478
:1044300000440000000000380010001000100010C0
:104440000010001000380000000000040004000408
:104450000004000400040044003800000000004490
:104460000048005000600050004800480044000030
:10447000000000400040004000400040004000407C
:10448000007C000000000044006C006C00540044FC
:104490000044004400440000000000440064006444
:1044A00000540054004C004C004400000000003850
:1044B000004400440044004400440044003800002C
:1044C00000000078004400440044007800400040B0
:1044D0000040000000000038004400440044004454
:1044E00000440054003800040000007800440044F8
:1044F00000440078004800480044000000000038F4
:10450000004400400030000800040044003800006F
:104510000000007C001000100010001000100010BF
:104520000010000000000044004400440044004427
:1045300000440044003800000000004400440044EF
:10454000002800280028001000100000000000448F
:104550000044005400540054006C0028002800005F
:104560000000004400280028001000100028002847
:10457000004400000000004400440028002800100F
:1045800000100010001000000000007C0004000873
:104590000010001000200040007C00000000001807
:1045A000001000100010001000100010001000108B
:1045B000001800200020001000100010001000085B
:1045C0000008000000000030001000100010001073
:1045D000001000100010001000300010002800280B
:1045E0000044000000000000000000000000000087
:1045F00000000000000000000000000000000000BB
:1046000000FE00200010000000000000000000007C
:104610000000000000000000000000380044003CE2
:104620000044004C003400000000004000400058EE
:1046300000640044004400640058000000000000D2
:1046400000000038004400400040004400380000F2
:104650000000000400040034004C00440044004CFE
:104660000034000000000000000000380044007C1E
:1046700000400044003800000000000C0010007CE6
:1046800000100010001000100010000000000000DA
:1046900000000034004C00440044004C003400048E
:1046A000007800400040005800640044004400448A
:1046B0000044000000000010000000700010001016
:1046C000001000100010000000000010000000703A
:1046D00000100010001000100010001000E000405A
:1046E00000400048005000600050004800440000B6
:1046F00000000070001000100010001000100010EA
:104700000010000000000000000000780054005479
:104710000054005400540000000000000000005845
:104720000064004400440044004400000000000015
:1047300000000038004400440044004400380000F9
:1047400000000000000000580064004400440064C1
:10475000005800400040000000000034004C0044BD
:104760000044004C00340004000400000000005825
:1047700000640040004000400040000000000000D5
:1047800000000038004400300008004400380000F9
:1047900000000020002000780020002000200020E1
:1047A0000018000000000000000000440044004425
:1047B0000044004C003400000000000000000044F1
:1047C000004400280028002800100000000000001D
:1047D0000000005400540054006C00280028000021
:1047E0000000000000000044002800100010002815
:1047F00000440000000000000000004400440028C5
:104800000028001000100010006000000000007C74
:104810000008001000200040007C0000000000188C
:1048200000100010001000200020001000100010E8
:1048300000180010001000100010001000100010F0
:1048400000100010001000300010001000100008D0
:1048500000080010001000100030000000000000F0
:104860000074004C00000000000000000000010285
:1048700002030405060708090A0B0C0D0E0F1010A1
:104880000000000000000000010203040607080900
:10489000000000000102030402400000000000A02C
:1048A0000000000005400000000000C800000000FB
:1048B0000C4000000000409C000000001940000077
:1048C0000020BCBE0000000034400000BFC91B8EA9
:1048D00000000004B5400000504BCFD06607E2CF87
:1048E000010000006C4100003E8251AADFEEA734B7
:1048F00001000000D9420000DCB5A0E23A301F9769
:10490000FFFFFFFFB4450000FD25A0C8E9A3C14F8C
:10491000FFFFFFFFFF3F00000000008000000000DD
:10492000FF3F000000000080000000006849000810
:10493000000000204400000028010008AC490008E5
:10494000440000203C0B0000440100081C00000053
:1049500043000000F8FFFFFF0C0000000E00000005
:104960000F0000002E000000070A000002410008AE
:104970000000000000000000010000000000000036
:104980000000000000000000000000000000000027
:104990000000000000000000000000000100000016
:0C49A00010000000000000000024F400E3
:04000005080000ED02
:00000001FF
